:020000040000fa
:080000000002040000000000f2
:020000040000fa
:100400004f8820000eff20000e0188000000000031
:100410000c00070040b3200001002000110007007d
:10042000000020000000e000020032000000020096
:100430000000000094020200000000000040da000a
:100440000000fe004440a900000020000000e00081
:100450000300320000002000a00188004440a800f2
:100460000000060091018800800078000000eb0089
:1004700015003700e280400032a0b4009101ba00bc
:10048000e280400032a0b4009102ba00e280400055
:1004900032a0b4000002eb00472bde00f507b200eb
:1004a000602ce10004003a000059eb008301e900f0
:1004b000fdff3e00040037006128e100010032002a
:1004c0000082eb00040007001101ba000200e00006
:1004d000e8ff3a00000006003159ba008301e90044
:1004e0000c0032002159ba008301e90008003200f3
:1004f0000400e00003003a00e280400032a0b400b3
:10050000f5ff370011d9ba008301e900faff3a007c
:100510008100e800e180400032a0b4000000060045
:080520000040da000000fe00bb
:020000040000fa
:0200000401f009
:04000800ffff0000f6
:020000040000fa
:0200000401f009
:04000c00f8ff0000f9
:020000040000fa
:0200000401f009
:040010007bff000072
:020000040000fa
:0200000401f009
:040014007fff00006a
:020000040000fa
:0200000401f009
:04001800ffff0000e6
:020000040000fa
:0200000401f009
:04001c00deff000003
:020000040000fa
:1000080090020000900200009002000090020000a0
:100018009002000090020000900200009002000090
:100028009002000090020000900200007605000097
:100038009002000090020000900200009002000070
:100048009002000090020000900200009002000060
:100058009002000090020000900200009002000050
:100068009002000090020000900200009002000040
:10007800dc040000900200009002000090020000e2
:100088009002000090020000900200009002000020
:100098009002000090020000900200009002000010
:1000a8009002000090020000900200009002000000
:1000b80090020000900200009002000090020000f0
:1000c80090020000900200009002000090020000e0
:1000d80090020000900200009002000090020000d0
:1000e80090020000900200009002000090020000c0
:1000f80090020000900200009002000090020000b0
:10010800900200009002000090020000900200009f
:10011800900200009002000090020000900200008f
:10012800900200009002000090020000900200007f
:10013800900200009002000090020000900200006f
:10014800900200009002000090020000900200005f
:10015800900200009002000090020000900200004f
:10016800900200009002000090020000900200003f
:10017800900200009002000090020000900200002f
:10018800900200009002000090020000900200001f
:10019800900200009002000090020000900200000f
:1001a80090020000900200009002000090020000ff
:1001b80090020000900200009002000090020000ef
:1001c80090020000900200009002000090020000df
:1001d80090020000900200009002000094030000ca
:1001e80090020000900200009002000090020000bf
:0801f8009002000090020000db
:020000040000fa
:10020800900200009002000090020000900200009e
:10021800900200009002000090020000900200008e
:100228009002000090020000900200007605000095
:10023800900200009002000090020000900200006e
:10024800900200009002000090020000900200005e
:10025800900200009002000090020000900200004e
:10026800900200009002000090020000900200003e
:10027800dc040000900200009002000090020000e0
:10028800900200009002000090020000900200001e
:10029800900200009002000090020000900200000e
:1002a80090020000900200009002000090020000fe
:1002b80090020000900200009002000090020000ee
:1002c80090020000900200009002000090020000de
:1002d80090020000900200009002000090020000ce
:1002e80090020000900200009002000090020000be
:1002f80090020000900200009002000090020000ae
:10030800900200009002000090020000900200009d
:10031800900200009002000090020000900200008d
:10032800900200009002000090020000900200007d
:10033800900200009002000090020000900200006d
:10034800900200009002000090020000900200005d
:10035800900200009002000090020000900200004d
:10036800900200009002000090020000900200003d
:10037800900200009002000090020000900200002d
:10038800900200009002000090020000900200001d
:10039800900200009002000090020000900200000d
:1003a80090020000900200009002000090020000fd
:1003b80090020000900200009002000090020000ed
:1003c80090020000900200009002000090020000dd
:1003d80090020000900200009002000094030000c8
:1003e80090020000900200009002000090020000bd
:0803f8009002000090020000d9
:020000040000fa
:100528000000fa0090022000303a8800213a80004a
:10053800f0f32f0000806000203a8800213a800004
:1005480000fe2f0000806000203a88000000eb00c9
:10055800403a880040a7a900120020008007200028
:10056800a10920003374200080497800814978006f
:1005780082497800120020006004200071052000e4
:1005880023742000804978008149780082497800e6
:1005980000000000113a8000000027008080600001
:1005a80000002100808f5000faff3a000000000090
:1005b800113a80000002200000806000e00f500027
:1005c800fbff320050c7a80051a7a800813a80005d
:1005d8000070200000807000803a880051e7a80071
:1005e800413a800000fc2f00008060005000b300fa
:1005f800403a880000000000813a80000000240092
:1006080000806000e00f5000fbff32000001eb00ab
:1006180060042000710520002374200080497800c0
:10062800814978008249780001348000f00f2c005d
:100638008080600000502000008070000034880036
:1006480002042000600420007105200023742000ab
:10065800804978008149780082497800c8a2a800ba
:10066800a90307000000000010418000e00f5000bf
:10067800fdff3200110307006e0307007b0307002c
:10068800b203070001e4a80001e3a8000100370055
:100698000000000040418000e10f500003003a00d4
:1006a8000000eb00404188000040fe00014080004f
:1006b800703e2000808f50000500340001e4a9003e
:1006c800a1e0a900000000000000000000000000f8
:1006d800f0408000e20f5000edff3a00004080003b
:1006e8000000e800004088000000eb00104288008d
:1006f8000000000000000000000000002324a90002
:100708002304a9004324a9004304a9006324a900e1
:100718006304a9000000eb00f0408800ddff37000b
:100728003600f800809fbe00829fbe00849fbe00f6
:10073800869fbe000000fa0091e0a9001019800011
:100748004500dd0010408800001980004500dd00ec
:1007580020408800201980004500dd0030408800d6
:10076800f1418000204080000180b9004209dd008d
:100778004e00de0000007100ce88de0000448800d4
:10078800114488000244800013448000f0ff2700d1
:1007980001002000800f5100818f590003003400b0
:1007a800f0ff2700904188000400370000448000d3
:1007b80011448000000078009041880010428000b9
:1007c8000000e8001042880011428000f052270023
:1007d800808f5000040034000000eb0000408800c7
:1007e800005327001042880011198000103a200099
:1007f800808f500003003e000040eb0044e8b70043
:100808000200370010c0b30044e8b700004280007f
:10081800213327000180b900c109dd004f00de0047
:1008280000807100cf88de000001780090418000d0
:10083800d1cc20000180b900c109dd004f00de00e5
:1008480000807100cf88de000000780000004100c1
:1008580000428800a1418000f07c2000808f500079
:100868000b00340000428000c580de00804180001b
:10087800808f500003003d000040eb0045e8b700c2
:100888000d00370010c0b30045e8b7000a00370074
:1008980020408000c580de0080418000808f5000ad
:1008a80003003d000040eb0045e8b70002003700b8
:1008b80010c0b30045e8b70044c8bf00e04f50007f
:1008c8001b003a0045c8bf00e04f500018003a002e
:1008d80046c8bf00e04f500015003a00f0408000c5
:1008e800e10f500006003a0020002000f040880088
:1008f80010002000c040880010002000d040880070
:10090800c600070021418000a0042000808f50000d
:10091800030034000e0207000000eb0020418800ad
:10092800204180000000e8002041880019003700bd
:1009380010002000f040880044c8bf00e14f50007c
:1009480002003a00007d2000004088002324a8000f
:100958002304a8004324a8004304a8006324a80093
:100968006304a80011218000f0f32f0000806000cc
:100978001021880011228000f0f32f000080600011
:100988001022880011238000f0f32f0000806000ff
:10099800102388000080fa004f03be004f02be00fb
:1009a8004f01be004f00be003600f90000400600af
:1009b8003600f800809fbe00829fbe00849fbe0064
:1009c800869fbe000000fa0010418000e10f500031
:1009d8000d003a002324a8002304a8004324a800fb
:1009e8004304a800401f2000e802070001e4a90012
:1009f8000000eb00104188008220a80010002000b1
:100a0800404188002f003700a1e0a9002324a90055
:100a18002304a9004324a9004304a90010002000ce
:100a2800c040880010002000d0408800100020003e
:100a3800104188008220a9006000b8004042880068
:100a4800514288000000eb00304188006000b80087
:100a580060438800714388006000b800c042880085
:100a6800d1428800f0ff2500f04188006000b800fe
:100a7800c0438800d14388000000eb00a0408800f4
:100a88000000eb00d04188000000eb0070418800b6
:100a98006000b800a0438800b14388000000eb0064
:100aa800c04188000000eb00b04188000000eb0066
:100ab800a0418800a0ea21004022880001e4a800a3
:100ac800a1e0a8008680a9000080fa004f03be00bc
:100ad8004f02be004f01be004f00be003600f900b5
:100ae800004006003600f800809fbe00829fbe00ce
:100af8000000fa008460a900d0408000e00f500098
:100b08000f003a00a2438000b3438000c043800036
:100b1800d14380000200400083804800a043880041
:100b2800b1438800b04180000000e800b04188006f
:100b3800a04180000000e800a041880002003700c2
:100b4800203f200080418800a1418000f07c2000e7
:100b5800808f500004003400a037200080418800b6
:100b6800007d2000a0418800b141800000202000c5
:100b7800808f500024003400a0438000b1438000df
:100b88004709dd004900de0000007100c988de0069
:100b980000007800c04188000000eb00b0418800e8
:100ba8006000b800a0438800b1438800c1418000bc
:100bb800f0012400808f500002003c000002240055
:100bc800c0418800c241800000002c00f1ff2100d4
:100bd800811f7800110009004208d800cf00780072
:100be800f041880031198000101a2000808f5000d1
:100bf80003003e000040eb0046e8b7000200370063
:100c080010c0b30046e8b7000080fa004f01be00ec
:100c18004f00be003600f900004006000000fa0050
:100c2800c0408000e10f500004003a0010408000ee
:100c3800404088000000eb00c0408800d0408000a1
:100c4800e10f50000c003a004140800080862600e9
:100c5800808f500004003c00404080008003b000ba
:100c680040408800040037009086260040408800f5
:100c78000000eb00d04088004140800070418000b7
:100c88008080400010408000008050005040880064
:100c980051408000303321000180b9004109dd0056
:100ca8004f00de0000007100cf88de0000017800f0
:100cb80031418000c0cc26000180b900c109dd00a7
:100cc8004f00de0000807100cf88de000000780051
:100cd80000004100504088005040800030418800aa
:100ce800d0418000e00f50000300320050408000e7
:100cf800e00f50000d003d0051408000606620006c
:100d08000180b900cf89de00410add004f01de0015
:100d180002017200404280005142800002004000ff
:100d28008380480040428800514288004242800047
:100d380053428000f07f200001002000800f510006
:100d4800818f590005003400f07f20000100200049
:100d580040428800514288000b0037004242800020
:100d68005342800010802f00f1ff2f00800f5100a8
:100d7800818f590004003d0010802f00f1ff2f00e3
:100d880040428800514288005140800070eb2700a3
:100d98000180b9004109dd004f00de00000071004c
:100da800cf88de006042880071428800624280007d
:100db800734280004042800051428000020040009f
:100dc80083804800404388005143880042438000a4
:100dd80053438000f07f200001002000800f510065
:100de800818f590005003400f07f200001002000a9
:100df80040438800514388000b003700424380007d
:100e08005343800010802f00f1ff2f00800f510006
:100e1800818f590004003d0010802f00f1ff2f0042
:100e28004043880051438800424380005343800078
:100e38004518dd00cb10de00810070004510dd0094
:100e48004043880051438800424380005343800058
:100e580090418000cf80de00000051008180590061
:100e68008043880091438800824380009343800038
:100e780010002800f1ff2f00800f5100818f5900ca
:100e880005003d0010002800f1ff2f008043880076
:100e9800914388000b003700824380009343800011
:100ea800f0ff270001002000800f5100818f5900ba
:100eb80004003400f0ff2700010020008043880070
:100ec80091438800804380009143800000007800af
:100ed8005041880050418000d1f820000180b900bd
:100ee800c109dd004f00de0000807100cf88de0000
:100ef8000000780000418800d0418000e00f5000d9
:100f08000300320050418000e00f500009003d000e
:100f1800504180004c80de006101b90060438000d0
:100f280071438000020040008380480060438800cd
:100f3800714388006243800073438000f0ff2700fc
:100f480001002000800f5100818f590005003400f6
:100f5800f0ff2700010020006043880071438800eb
:100f68000b003700624380007343800010002800a4
:100f7800f1ff2f00800f5100818f590004003d00c0
:100f880010002800f1ff2f0060438800714388009b
:100f98001140800050c923000180b900410add00da
:100fa8004f00de0000007200cf88de0000007800ed
:100fb8008040880091418000205320000180b900c2
:100fc8004109dd004f00de0000007100cf88de001f
:100fd8000000780090408800004180006101b9005d
:100fe80080408000cf80de000201400083814800fd
:100ff80090408000cf80de000201400083814800dd
:1010080060438000714380000200400083804800f4
:10101800c0438800d14388000000eb00d04188001d
:10102800c2438000d3438000f0ff27000100200066
:10103800800f5100818f590007003400f0ff27000e
:1010480001002000c0438800d14388001000200020
:10105800d041880008003700c0438000d143800099
:10106800e00f5000e08f580003003d006000b8001a
:10107800c0438800d1438800c0438000d14380002a
:101088000000780091f520000180b900c109dd0059
:101098004f00de0000807100cf88de00000078007d
:1010a800a0408800a0408000a1ea210000805000f4
:1010b800e0438800e043800040228800e14380004c
:1010c800e0418000008050000019b000f043880023
:1010d800f1438000a0ea2100808f50000200340014
:1010e80090ea2100f0438800f04380003023880014
:1010f800f043800070238800e1438000e0418000d5
:101108000080d1000080500060418800604180006c
:10111800402388006141800050f52000808f5000f6
:101128000500340061418000b00a2f0000804000b3
:1011380080238800040037006141800050f52000ba
:1011480000804000802388000080fa00000006002c
:101158000000fa00314080002040800000805000ec
:101168007040880071408000509620000180b900ce
:101178004109dd004f00de0000007100cf88de006d
:10118800e0428800f142880071408000d0122000bf
:101198000180b900cf89de00410add004f01de0081
:1011a80002017200c0428000d1428000020040006b
:1011b80083804800c0428800d1428800c242800033
:1011c800d3428000002c210001002000800f510034
:1011d800818f590005003400002c210001002000f7
:1011e800c0428800d14288000b003700c24280000c
:1011f800d342800000d42e00f1ff2f00800f510051
:10120800818f590004003d0000d42e00f1ff2f000b
:10121800c0428800d1428800e2428000f342800048
:10122800c0428000d1428000020040008380480014
:1012380020438800314388002243800033438000e4
:101248000096200001002000800f5100818f590076
:10125800050034000096200001002000204388008b
:10126800314388000b00370022438000334380005d
:10127800006a2f00f1ff2f00800f5100818f590065
:1012880004003d00006a2f00f1ff2f002043880072
:101298003143880020438000314380004c09dd0041
:1012a8004400de0000007100c488de000000780001
:1012b800704188000080fa00000006000000fa0073
:1012c800a0ea21002020880050f520003021880065
:1012d80050f520003022880023e4a80023c4a80089
:1012e80023a4a9002384a90011218000f03f2f0026
:1012f80000806000102188002124a9002104a90091
:101308008016200050218800801620006021880067
:101318004144a800a1228000f0ff200080806000e6
:101328000000210000807000a022880090d22100d7
:101338009022880043e4a80043c4a80043a4a9005d
:101348004384a90011228000f03f2f000080600034
:10135800102288004124a9004104a9008016200019
:1013680050228800801620006022880021218000f9
:1013780070f02f00008060000030a000202188005d
:101388002122800070f02f00008060000030a00053
:10139800202288002123800070f02f000080600048
:1013a8000030a0002023880021218000f03f280081
:1013b800008060002021880021228000f03f280062
:1013c800008060002022880021238000f03f280050
:1013d8000080600020238800202180003000b300b6
:1013e80020218800202280003000b30020228800bd
:1013f800202380003000b3002023880011218000c2
:10140800f0f32f0000806000102188001122800076
:10141800f0f32f0000806000102288001123800064
:10142800f0f32f0000806000102388000080fa008d
:10143800000006000000fa0063e4a80063c4a800e6
:1014480063a4a9006384a9001123800000c02000c0
:1014580000807000102388006224a8006124a9007d
:101468006104a9000080fa00000006000000fa00ec
:101478000603a9000623a9000203a9000223a90064
:101488000243a9000263a9000ae3a8000be3a8002d
:101498005118800000fe2f00008060005000b3004b
:1014a8005018880051188000f00f2e0080806000ce
:1014b8000050200000807000501888000183a800a8
:1014c8000103a90000e3a90000c3a80000a3a90024
:1014d8000083a9000118800080ff2f0000806000b1
:1014e8000020a00000188800510580000007200097
:1014f800008070005005880091e0a900a1e0a800d4
:101508000080fa00000006000000fa005116800072
:101518000002200000806000e00f5000040032004c
:101528000000eb00104188008220a800030037006b
:1015380010002000104188008220a9008680a900a0
:101548009680a8000080fa00000006000000fa005b
:101558000000eb0020088800c03020001008880038
:1015680021058000f0ff2800808060000000240032
:1015780000807000200588008460a9009460a8009d
:1015880005e1a8000080fa000000060001fa20002a
:101598000000000000000000000000000000000043
:1015a8000000000000000000000000008100e900c9
:1015b800f7ff3a000000e900f4ff3a0000000600d7
:1015c8000000000000000000000000000000000013
:1015d8000000000000000000000000000000000003
:1015e80000000000000000000000000000000000f3
:1015f80000000000000000000000000000000000e3
:1016080000000000000000000000000000000000d2
:1016180000000000000000000000000000000000c2
:1016280000000000000000000000000000000000b2
:1016380000000000000000000000000000000000a2
:101648000000000000000000000000000000000092
:10165800000000000000e900d9ff3a000000060081
:020000040000fa
:10166800000800007c0000000200000000000000ec
:101678000000000000000000000000000000000062
:101688000000000000000000000000000100010050
:101698000000000000000000000000000000000042
:1016a800000000000000000000000000e803000047
:1016b800000000000000000000000000c800ff005b
:1016c8005f000000000000000000000000000000b3
:1016d8000000000000000000000000000000000002
:1016e80000000000000000000000000000000000f2
:1016f80000000000000000000000000000000000e2
:1017080000000000000000000000000000000000d1
:10171800000000007c080000080000000000000035
:0417280000000000bd
:00000001FF
