:020000040000fa
:080000000002040000000000f2
:020000040000fa
:0400080028050000c7
:020000040000fa
:04000c0028050000c3
:020000040000fa
:0400100028050000bf
:020000040000fa
:0400140028050000bb
:020000040000fa
:0400180028050000b7
:020000040000fa
:04001c0028050000b3
:020000040000fa
:0400200028050000af
:020000040000fa
:0400240028050000ab
:020000040000fa
:0400280028050000a7
:020000040000fa
:04002c0028050000a3
:020000040000fa
:04003000280500009f
:020000040000fa
:040034008e04000036
:020000040000fa
:040038002805000097
:020000040000fa
:04003c002805000093
:020000040000fa
:04004000280500008f
:020000040000fa
:04004400280500008b
:020000040000fa
:040048002805000087
:020000040000fa
:04004c002805000083
:020000040000fa
:04005000280500007f
:020000040000fa
:04005400280500007b
:020000040000fa
:040058002805000077
:020000040000fa
:04005c002805000073
:020000040000fa
:04006000280500006f
:020000040000fa
:04006400280500006b
:020000040000fa
:040068002805000067
:020000040000fa
:04006c002805000063
:020000040000fa
:04007000280500005f
:020000040000fa
:04007400280500005b
:020000040000fa
:040078000e04000072
:020000040000fa
:04007c002805000053
:020000040000fa
:04008000280500004f
:020000040000fa
:04008400280500004b
:020000040000fa
:040088002805000047
:020000040000fa
:04008c002805000043
:020000040000fa
:04009000280500003f
:020000040000fa
:04009400280500003b
:020000040000fa
:040098002805000037
:020000040000fa
:04009c002805000033
:020000040000fa
:0400a000280500002f
:020000040000fa
:0400a400280500002b
:020000040000fa
:0400a8002805000027
:020000040000fa
:0400ac002805000023
:020000040000fa
:0400b000280500001f
:020000040000fa
:0400b400280500001b
:020000040000fa
:0400b8002805000017
:020000040000fa
:0400bc002805000013
:020000040000fa
:0400c000280500000f
:020000040000fa
:0400c400280500000b
:020000040000fa
:0400c8002805000007
:020000040000fa
:0400cc002805000003
:020000040000fa
:0400d00028050000ff
:020000040000fa
:0400d40028050000fb
:020000040000fa
:0400d80028050000f7
:020000040000fa
:0400dc0028050000f3
:020000040000fa
:0400e00028050000ef
:020000040000fa
:0400e40028050000eb
:020000040000fa
:0400e80028050000e7
:020000040000fa
:0400ec0028050000e3
:020000040000fa
:0400f00028050000df
:020000040000fa
:0400f40028050000db
:020000040000fa
:0400f80028050000d7
:020000040000fa
:0400fc0028050000d3
:020000040000fa
:0401000028050000ce
:020000040000fa
:0401040028050000ca
:020000040000fa
:0401080028050000c6
:020000040000fa
:04010c0028050000c2
:020000040000fa
:0401100028050000be
:020000040000fa
:0401140028050000ba
:020000040000fa
:0401180028050000b6
:020000040000fa
:04011c0028050000b2
:020000040000fa
:0401200028050000ae
:020000040000fa
:0401240028050000aa
:020000040000fa
:0401280028050000a6
:020000040000fa
:04012c0028050000a2
:020000040000fa
:04013000280500009e
:020000040000fa
:04013400280500009a
:020000040000fa
:040138002805000096
:020000040000fa
:04013c002805000092
:020000040000fa
:04014000280500008e
:020000040000fa
:04014400280500008a
:020000040000fa
:040148002805000086
:020000040000fa
:04014c002805000082
:020000040000fa
:04015000280500007e
:020000040000fa
:04015400280500007a
:020000040000fa
:040158002805000076
:020000040000fa
:04015c002805000072
:020000040000fa
:04016000280500006e
:020000040000fa
:04016400280500006a
:020000040000fa
:040168002805000066
:020000040000fa
:04016c002805000062
:020000040000fa
:04017000280500005e
:020000040000fa
:04017400280500005a
:020000040000fa
:040178002805000056
:020000040000fa
:04017c002805000052
:020000040000fa
:04018000280500004e
:020000040000fa
:04018400280500004a
:020000040000fa
:040188002805000046
:020000040000fa
:04018c002805000042
:020000040000fa
:04019000280500003e
:020000040000fa
:04019400280500003a
:020000040000fa
:040198002805000036
:020000040000fa
:04019c002805000032
:020000040000fa
:0401a000280500002e
:020000040000fa
:0401a400280500002a
:020000040000fa
:0401a8002805000026
:020000040000fa
:0401ac002805000022
:020000040000fa
:0401b000280500001e
:020000040000fa
:0401b400280500001a
:020000040000fa
:0401b8002805000016
:020000040000fa
:0401bc002805000012
:020000040000fa
:0401c000280500000e
:020000040000fa
:0401c400280500000a
:020000040000fa
:0401c8002805000006
:020000040000fa
:0401cc002805000002
:020000040000fa
:0401d00028050000fe
:020000040000fa
:0401d40028050000fa
:020000040000fa
:0401d80028050000f6
:020000040000fa
:0401dc0028050000f2
:020000040000fa
:0401e00028050000ee
:020000040000fa
:0401e400c80200004d
:020000040000fa
:0401e80028050000e6
:020000040000fa
:0401ec0028050000e2
:020000040000fa
:0401f00028050000de
:020000040000fa
:0401f40028050000da
:020000040000fa
:0401f80028050000d6
:020000040000fa
:0402080028050000c5
:020000040000fa
:04020c0028050000c1
:020000040000fa
:0402100028050000bd
:020000040000fa
:0402140028050000b9
:020000040000fa
:0402180028050000b5
:020000040000fa
:04021c0028050000b1
:020000040000fa
:0402200028050000ad
:020000040000fa
:0402240028050000a9
:020000040000fa
:0402280028050000a5
:020000040000fa
:04022c0028050000a1
:020000040000fa
:04023000280500009d
:020000040000fa
:040234008e04000034
:020000040000fa
:040238002805000095
:020000040000fa
:04023c002805000091
:020000040000fa
:04024000280500008d
:020000040000fa
:040244002805000089
:020000040000fa
:040248002805000085
:020000040000fa
:04024c002805000081
:020000040000fa
:04025000280500007d
:020000040000fa
:040254002805000079
:020000040000fa
:040258002805000075
:020000040000fa
:04025c002805000071
:020000040000fa
:04026000280500006d
:020000040000fa
:040264002805000069
:020000040000fa
:040268002805000065
:020000040000fa
:04026c002805000061
:020000040000fa
:04027000280500005d
:020000040000fa
:040274002805000059
:020000040000fa
:040278000e04000070
:020000040000fa
:04027c002805000051
:020000040000fa
:04028000280500004d
:020000040000fa
:040284002805000049
:020000040000fa
:040288002805000045
:020000040000fa
:04028c002805000041
:020000040000fa
:04029000280500003d
:020000040000fa
:040294002805000039
:020000040000fa
:040298002805000035
:020000040000fa
:04029c002805000031
:020000040000fa
:0402a000280500002d
:020000040000fa
:0402a4002805000029
:020000040000fa
:0402a8002805000025
:020000040000fa
:0402ac002805000021
:020000040000fa
:0402b000280500001d
:020000040000fa
:0402b4002805000019
:020000040000fa
:0402b8002805000015
:020000040000fa
:0402bc002805000011
:020000040000fa
:0402c000280500000d
:020000040000fa
:0402c4002805000009
:020000040000fa
:0402c8002805000005
:020000040000fa
:0402cc002805000001
:020000040000fa
:0402d00028050000fd
:020000040000fa
:0402d40028050000f9
:020000040000fa
:0402d80028050000f5
:020000040000fa
:0402dc0028050000f1
:020000040000fa
:0402e00028050000ed
:020000040000fa
:0402e40028050000e9
:020000040000fa
:0402e80028050000e5
:020000040000fa
:0402ec0028050000e1
:020000040000fa
:0402f00028050000dd
:020000040000fa
:0402f40028050000d9
:020000040000fa
:0402f80028050000d5
:020000040000fa
:0402fc0028050000d1
:020000040000fa
:0403000028050000cc
:020000040000fa
:0403040028050000c8
:020000040000fa
:0403080028050000c4
:020000040000fa
:04030c0028050000c0
:020000040000fa
:0403100028050000bc
:020000040000fa
:0403140028050000b8
:020000040000fa
:0403180028050000b4
:020000040000fa
:04031c0028050000b0
:020000040000fa
:0403200028050000ac
:020000040000fa
:0403240028050000a8
:020000040000fa
:0403280028050000a4
:020000040000fa
:04032c0028050000a0
:020000040000fa
:04033000280500009c
:020000040000fa
:040334002805000098
:020000040000fa
:040338002805000094
:020000040000fa
:04033c002805000090
:020000040000fa
:04034000280500008c
:020000040000fa
:040344002805000088
:020000040000fa
:040348002805000084
:020000040000fa
:04034c002805000080
:020000040000fa
:04035000280500007c
:020000040000fa
:040354002805000078
:020000040000fa
:040358002805000074
:020000040000fa
:04035c002805000070
:020000040000fa
:04036000280500006c
:020000040000fa
:040364002805000068
:020000040000fa
:040368002805000064
:020000040000fa
:04036c002805000060
:020000040000fa
:04037000280500005c
:020000040000fa
:040374002805000058
:020000040000fa
:040378002805000054
:020000040000fa
:04037c002805000050
:020000040000fa
:04038000280500004c
:020000040000fa
:040384002805000048
:020000040000fa
:040388002805000044
:020000040000fa
:04038c002805000040
:020000040000fa
:04039000280500003c
:020000040000fa
:040394002805000038
:020000040000fa
:040398002805000034
:020000040000fa
:04039c002805000030
:020000040000fa
:0403a000280500002c
:020000040000fa
:0403a4002805000028
:020000040000fa
:0403a8002805000024
:020000040000fa
:0403ac002805000020
:020000040000fa
:0403b000280500001c
:020000040000fa
:0403b4002805000018
:020000040000fa
:0403b8002805000014
:020000040000fa
:0403bc002805000010
:020000040000fa
:0403c000280500000c
:020000040000fa
:0403c4002805000008
:020000040000fa
:0403c8002805000004
:020000040000fa
:0403cc002805000000
:020000040000fa
:0403d00028050000fc
:020000040000fa
:0403d40028050000f8
:020000040000fa
:0403d80028050000f4
:020000040000fa
:0403dc0028050000f0
:020000040000fa
:0403e00028050000ec
:020000040000fa
:0403e400c80200004b
:020000040000fa
:0403e80028050000e4
:020000040000fa
:0403ec0028050000e0
:020000040000fa
:0403f00028050000dc
:020000040000fa
:0403f40028050000d8
:020000040000fa
:0403f80028050000d4
:020000040000fa
:100400004f8820000eff20000e0188000000000031
:10041000000020000000e000020032000001200087
:1004200020028800140007008b0107000000e00094
:1004300003003a00a0b820000100200002003700ad
:100440000000200001002000810f70000100320038
:1004500014000700000020000000e000020032004d
:100460000000020000000000280a02000000000056
:100470000040da000000fe004440a9000000200017
:100480000000e0000300320000002000a00188000e
:100490004440a800000006008a1f78008b1f7800e7
:1004a0000000060091018800800478000000eb0045
:1004b0001a003700e284440032a0b4009905ba0063
:1004c000e284440032a0b4009906ba00e2844400f9
:1004d00032a0b4000006eb00476fde00fd07b2005b
:1004e000636ce10003003a00ebff07000000eb0043
:1004f0000a003700606ce10004003a00005deb0088
:100500008b05e900fdff3e00040037006168e10053
:10051000010032000086eb000b00070019c7ba008b
:100520001905ba000e04e00003003a000a00e000da
:10053000e0ff3a0000000600fe07b2009e018800be
:100540008a047800f5ff3700395dba008b05e900b1
:100550000c003200295dba008b05e900080032006a
:100560000c00e00003003a00e284440032a0b40032
:10057000f5ff370019ddba008b05e900faff3a00f4
:100580008904e800e184440032a0b40000000600c1
:100590003600f800809fbe00829fbe00849fbe0090
:1005a000869fbe00881f78000000fa0091e0a90035
:1005b000161980004533dd001640880006198000ba
:1005c0004533dd0026408800261980004533dd00d4
:1005d00036408800174480002640800007b3b900e9
:1005e000423cdd004e32de0004027400cebade0072
:1005f000b4438800c5438800b6438000c7438000e9
:10060000f4ff270005002000840f5300858f5b0056
:1006100003003400f4ff2700644188000400370021
:10062000b4438000c5438000040278006441880020
:10063000e44180000402e800e4418800e5418000d4
:10064000f4522700848f5200030034000028ef008a
:1006500004532700e441880015198000143a200053
:10066000848f520002003e003e68ef000400370015
:1006700014c0b30004437800e5832000864a780064
:10068000d44180002533270005a2b900412cdd00ac
:100690004f21de0002017400cfa9de0002027800c3
:1006a00062418000d3cc20000391b900c11add0063
:1006b0004f10de0000807200cf98de00000078004e
:1006c00000004200d041880071418000f07c200091
:1006d000808f50000a003400d0418000c580de00c9
:1006e000f0438000808f500002003d003f68ef0023
:1006f0000c00370010c0b3003fe8b7000900370016
:1007000020408000c580de00f0438000808f5000d4
:1007100002003d003f68ef000200370010c0b30048
:100720003fe8b7003ec8bf000004e0001a003a00ee
:100730003fc8bf000004e00017003a0040c8bf00f7
:100740000004e00014003a00d0408000e10f5000a7
:1007500006003a0020002000d04088001000200051
:10076000d043880010002000e0438800bb00070051
:1007700001418000a0042000808f5000020034005e
:10078000140207002028ef00004180000000e8006c
:10079000004188001900370010002000d040880078
:1007a0003ec8bf00e14f500002003a00007d20002b
:1007b000004088002324a8002304a8004324a800a4
:1007c0004304a8006324a8006304a800112180004a
:1007d000f0f32f00008060001021880011228000bb
:1007e000f0f32f00008060001022880011238000a9
:1007f000f0f32f0000806000102388000080fa00d2
:100800004f0478004f03be004f02be004f01be00f0
:100810004f00be003600f900004006003600f80028
:10082000809fbe00829fbe00849fbe00869fbe0048
:100830000000fa00f0408000e10f50000c003a0088
:100840002324a8002304a8004324a8004304a800ec
:10085000401f20007a03070001e4a9001e28ef00d2
:100860008220a800100020002041880023003700cb
:10087000a1e0a9002324a9002304a9004324a9007e
:100880004304a90010002000d0438800100020007d
:10089000e043880010002000f04088008220a9007a
:1008a0004228ef004428ef002228ef006628ef00de
:1008b0006828ef005228ef005428ef00f0ff2500d1
:1008c000104488007228ef007428ef001428ef000d
:1008d0003428ef002a28ef006e28ef007028ef0080
:1008e0003228ef003028ef002e28ef00009720007c
:1008f0004022880001e4a800a1e0a8008680a900a9
:100900000080fa004f03be004f02be004f01be0040
:100910004f00be003600f900004006003600f80027
:10092000809fbe00829fbe00849fbe000400fa002c
:100930008460a900e24380000200e0000f003a005a
:10094000744380008543800092438000a34380006d
:100950000401410085814900724388008343880077
:10096000824180000201e8008241880072418000db
:100970000201e8007241880002003700223f200097
:10098000f243880073418000f27c2000828f510086
:1009900004003400a2372000f2438800027d2000ca
:1009a000724188008341800002202000828f510024
:1009b000210034007243800083438000471add0029
:1009c0004910de0000007200c998de0000007800c7
:1009d000904188003028ef006e28ef007028ef006b
:1009e00091418000f0012400808f500002003c0003
:1009f00000022400904188009241800004002c00f5
:100a0000f5ff2100048fbe001e02be001100090088
:100a1000422ad8001044880031198000101a2000a2
:100a2000808f500002003e004068ef000200370057
:100a300010c0b30040e8b7000080fa004f02be00cb
:100a40004f01be004f00be003600f9000040060016
:0c0a50000040da000000fe00000005007d
:020000040000fa
:100a5c001200fa00889fbe008a9fbe008c9fbe00c9
:100a6c00d0438000e10f500003003a00104080009a
:100a7c00404088007a28ef00e0438000e10f5000ee
:100a8c000b003a004140800080862600808f500089
:100a9c0004003c00404080008003b00040408800cf
:100aac000300370090862600404088007c28ef0029
:100abc004140800050418000808040001040800008
:100acc00008050005040880051408000303321009d
:100adc000181b90042079800530798004e0090001e
:100aec00de0090004109dd00cf00de0081007100c6
:100afc0071079800de019000cf99de00030f98007b
:100b0c007e0090006007980011418000c0cc260048
:100b1c000180b900c109dd004f01de0002817100c6
:100b2c00020f78004f89de00120798001e00780033
:100b3c00ee01900000804100504088005040800041
:100b4c0010418800a04180000000e000030032004a
:100b5c00504080000000e00011003d00514080003a
:100b6c00606620000180b900c109dd004f01de0084
:100b7c0002817100220798004f89de00320798002d
:100b8c0010428000214280002e019000be01900096
:100b9c0002004000838048001042880021428800f7
:100bac001242800023428000f07f200001002000d0
:100bbc00800f5100818f590005003400f07f200018
:100bcc000100200010428800214288000b003700f1
:100bdc00124280002342800010802f00f1ff2f0072
:100bec00800f5100818f590004003d0010802f00b0
:100bfc00f1ff2f00104288002142880051408000f4
:100c0c0070eb27000180b900c109dd004f06de0042
:100c1c000c867100cf8ede003c4288004d4288006d
:100c2c00324280004342800010428000214280000a
:100c3c000200400083804800104388002143880054
:100c4c001243800023438000f07f2000010020002d
:100c5c00800f5100818f590005003400f07f200077
:100c6c000100200010438800214388000b0037004e
:100c7c00124380002343800010802f00f1ff2f00cf
:100c8c00800f5100818f590004003d0010802f000f
:100c9c00f1ff2f001043880021438800124380008d
:100cac00234380004518dd00cb10de00810070006e
:100cbc004510dd001043880021438800124380005a
:100ccc002343800060418000cf80de000000510093
:100cdc008180590050438800614388005243800052
:100cec006343800010002800f1ff2f00800f51009b
:100cfc00818f590005003d0010002800f1ff2f00e6
:100d0c0050438800614388000b0037005243800039
:100d1c0063438000f0ff270001002000800f51008a
:100d2c00818f590004003400f0ff270001002000df
:100d3c005043880061438800504380006143800029
:100d4c00000078003041880030418000d1f820004c
:100d5c000180b9004109dd004f05de000a05710074
:100d6c00cf8dde000a007800e0408800a0418000b2
:100d7c000000e00003003200304180000000e00081
:100d8c0009003d00304180004c80de006101b9005b
:100d9c0030438000414380000200400083804800c3
:100dac003043880041438800324380004343800035
:100dbc00f0ff270001002000800f5100818f5900a7
:100dcc0005003400f0ff27000100200030438800ac
:100ddc00414388000b0037003243800043438000be
:100dec0010002800f1ff2f00800f5100818f590057
:100dfc0004003d0010002800f1ff2f003043880054
:100e0c00414388001140800050c923000180b90083
:100e1c00c109dd004f04de0008847100cf8cde00b8
:100e2c000800780080408800614180002053200039
:100e3c000180b9004109dd004f03de00060371009b
:100e4c00cf8bde000600780090408800e0408000e8
:100e5c006101b90080408000cf80de0002014000bb
:100e6c008381480090408000cf80de00020140006a
:100e7c0083814800304380004143800002004000e1
:100e8c008380480090438800a14388003428ef00f9
:100e9c0092438000a3438000f0ff27000100200054
:100eac00800f5100818f590007003400f0ff27009c
:100ebc000100200090438800a1438800100020000e
:100ecc00a04188000700370090438000a1438000b8
:100edc00e00f5000e08f580002003d007228ef0038
:100eec007428ef0090438000a1438000000078003c
:100efc00515620000180b900c109dd004f02de000f
:100f0c0004827100cf8ade0004007800a0408800c3
:100f1c00a04080000197200000805000b041880064
:100f2c00b041800040228800b14180000044800024
:100f3c00008050000019b000c0418800c141800001
:100f4c0000972000808f500002003400f0962000a3
:100f5c00c0418800c041800030238800c04180001f
:100f6c0070238800b1418000004480000080d100d3
:100f7c0000805000404188004041800040238800a0
:100f8c0041418000804b2000808f500005003400d0
:100f9c004141800080b42f000080400080238800f5
:100fac000400370041418000804b2000008040004d
:100fbc00802388004f06be004f05be004f04be00c4
:100fcc000080fa00000006000000fa0037408000a4
:100fdc0026408000068353007640880077408000ce
:100fec005696200007b3b9004139dd004f32de00c0
:100ffc0004027100cfbade00b4428800c5428800fa
:10100c0075408000d412200005a2b900412bdd00f0
:10101c004f21de0002017300cfa9de009442800054
:10102c00a54280000201420083814a00924288005e
:10103c00a342880094428000a5428000022c21002b
:10104c0003002000820f5200838f5a0005003400e9
:10105c00022c21000300200092428800a342880049
:10106c000b00370094428000a542800002d42e0071
:10107c00f3ff2f00820f5200838f5a0004003d00b3
:10108c0002d42e00f3ff2f0092428800a342880066
:10109c00b4428000c542800092428000a34280008e
:1010ac000401410085814900f24288000343880015
:1010bc00f4428000054380000296200003002000cb
:1010cc00820f5200838f5a000500340002962000d4
:1010dc0003002000f2428800034388000b00370015
:1010ec00f442800005438000026a2f00f3ff2f00ba
:1010fc00820f5200838f5a0004003d00026a2f00b9
:10110c00f3ff2f00f242880003438800f242800074
:10111c00034380004c1add004410de000000720016
:10112c00c498de0000007800504188000080fa006e
:10113c00000006000000fa00009720002020880024
:10114c00804b200030218800804b2000302288000a
:10115c00804b20003024880023e4a80023c4a8007e
:10116c0023a4a9002384a90011218000f03f2f00a3
:10117c0000806000102188002124a9002104a9000e
:10118c00a005200050218800e00620006021880086
:10119c004144a800a1228000f0ff200000806000e4
:1011ac0000c0a000a0228800e08f200090228800c0
:1011bc0043e4a80043c4a80043a4a9004384a900a5
:1011cc0011228000f03f2f00008060001022880068
:1011dc004124a9004104a900a00520005022880048
:1011ec00e0062000602288002121800070f02f0092
:1011fc00008060000030a0002021880021228000a7
:10120c0070f02f00008060000030a00020228800c9
:10121c002123800070f02f00008060000030a000bf
:10122c002023880021218000f03f280000806000ee
:10123c002021880021228000f03f280000806000df
:10124c002022880021238000f03f280000806000cd
:10125c0020238800202180003000b300202188004a
:10126c00202280003000b300202288002023800040
:10127c003000b3002023880011218000f0f32f00f0
:10128c00008060001021880011228000f0f32f00f4
:10129c00008060001022880011238000f0f32f00e2
:1012ac00008060001023880011248000f0f32f00d0
:1012bc0000806000102488000080fa000000060006
:1012cc000000fa0063e4a80063c4a80063a4a900aa
:1012dc006384a9001123800000c02000010070006d
:1012ec00102388006224a8006124a9006104a900cd
:1012fc0083e4a80083c4a80083a4a9008384a90064
:10130c001124800000c0200001007000102488000f
:10131c008224a8008124a9008104a9000080fa007d
:10132c00000006000000fa000603a9000623a9002d
:10133c000203a9000223a9000243a9000263a90029
:10134c000ae3a8000be3a8005118800000fe2f0050
:10135c00008060005000b3005018880051188000c5
:10136c00f00f2e0080806000005020000100700003
:10137c00501888000183a8000103a90000e3a9000c
:10138c0000c3a80000a3a9000083a90001188000d5
:10139c0080ff2f00008060000020a0000018880053
:1013ac0051058000000720000100700050058800e6
:1013bc0091e0a900a1e0a8000080fa00000006005e
:1013cc000000fa005116800000022000008060002e
:1013dc000000e000030032001e28ef008220a8006d
:1013ec000300370010002000f04088008220a90084
:1013fc008680a9009680a8000080fa0000000600f4
:10140c000000fa000421ef00c03020001008880012
:10141c0021058000f0ff28000080600000e0a000a3
:10142c00200588008460a9009460a80005e1a8004c
:10143c000080fa00000006000000fa000080fa00ac
:10144c00000006000000fa0090022000303a8800ec
:10145c00213a8000f0f32f0000806000203a8800d1
:10146c00213a800000fe2f0000806000203a8800a6
:10147c004827ef0040a7a900120020008007200099
:10148c00a10920003374200080497800814978003c
:10149c0082497800120020006004200071052000b1
:1014ac0023742000804978008149780082497800b3
:1014bc0000000000113a80000000270080806000ce
:1014cc0000002100808f5000faff3a00000000005d
:1014dc00113a800000022000008060000000e00053
:1014ec00fbff320050c7a80051a7a800813a80002a
:1014fc000070200001007000803a880051e7a800bd
:10150c00413a800000fc2f00008060005000b300c6
:10151c00403a880000000000813a8000000024005e
:10152c00008060000000e000fbff32000001eb00d7
:10153c00600420007105200023742000804978008d
:10154c008149780082497800b1368000f00f2c0078
:10155c008080600000d0220001007000b03688004e
:10156c00b136800000fc2f0080806000c00220009b
:10157c0001007000b03688000204200060042000d6
:10158c00710520002374200080497800814978007f
:10159c0082497800c8a2a800c902a80088ff0700e9
:1015ac0000000000f04080000000e000fdff320071
:1015bc00e0fe070042ff07005aff070090ff0700fc
:1015cc0001e4a80001e3a8000100370000000000be
:1015dc0020418000e10f500001003a002428ef0068
:1015ec0001408000703e2000808f500002003400cb
:1015fc0001e4a900a1e0a900d0408000e20f500056
:10160c00f2ff3a00004080000000e8000040880033
:10161c003c28ef002324a9002304a9004324a9009b
:10162c004304a9006324a9006304a9001a28ef004d
:10163c00e7ff370001fa2000000000000000000066
:10164c00000000000000000000000000000000008e
:10165c00000000008100e900f7ff3a000000e900fb
:10166c00f4ff3a000000060000000000000000003b
:10167c00000000000000000000000000000000005e
:10168c00000000000000000000000000000000004e
:10169c00000000000000000000000000000000003e
:1016ac00000000000000000000000000000000002e
:1016bc00000000000000000000000000000000001e
:1016cc00000000000000000000000000000000000e
:1016dc0000000000000000000000000000000000fe
:1016ec0000000000000000000000000000000000ee
:1016fc000000000000000000000000000000e900f5
:08170c00d9ff3a0000000600bd
:020000040000fa
:10171400000800007a000000000000007a080000c1
:101724000a000000020000000100010000e80300bc
:0c173400c800ff005f0000000000000083
:020000040000fa
:0200000401f009
:04000800ffff0000f6
:020000040000fa
:0200000401f009
:04000c008000000070
:020000040000fa
:0200000401f009
:040010006300000089
:020000040000fa
:0200000401f009
:040014005f00000089
:020000040000fa
:0200000401f009
:040018000f000000d5
:020000040000fa
:0200000401f009
:04001c00c20000001e
:00000001FF
